{
  "_format": "hh-sol-artifact-1",
  "contractName": "VotingSystem",
  "sourceName": "contracts/VotingSystem.sol",
  "abi": [
    {
      "inputs": [],
      "stateMutability": "nonpayable",
      "type": "constructor"
    },
    {
      "anonymous": false,
      "inputs": [
        {
          "indexed": false,
          "internalType": "uint256",
          "name": "electionId",
          "type": "uint256"
        },
        {
          "indexed": false,
          "internalType": "string",
          "name": "title",
          "type": "string"
        },
        {
          "indexed": false,
          "internalType": "uint256",
          "name": "startTime",
          "type": "uint256"
        },
        {
          "indexed": false,
          "internalType": "uint256",
          "name": "endTime",
          "type": "uint256"
        }
      ],
      "name": "ElectionCreated",
      "type": "event"
    },
    {
      "anonymous": false,
      "inputs": [
        {
          "indexed": false,
          "internalType": "uint256",
          "name": "electionId",
          "type": "uint256"
        },
        {
          "indexed": false,
          "internalType": "uint256",
          "name": "totalVotes",
          "type": "uint256"
        }
      ],
      "name": "ElectionFinalized",
      "type": "event"
    },
    {
      "anonymous": false,
      "inputs": [
        {
          "indexed": false,
          "internalType": "uint256",
          "name": "electionId",
          "type": "uint256"
        },
        {
          "indexed": false,
          "internalType": "address",
          "name": "voter",
          "type": "address"
        }
      ],
      "name": "VoteCast",
      "type": "event"
    },
    {
      "anonymous": false,
      "inputs": [
        {
          "indexed": false,
          "internalType": "uint256",
          "name": "electionId",
          "type": "uint256"
        },
        {
          "indexed": false,
          "internalType": "address",
          "name": "voter",
          "type": "address"
        }
      ],
      "name": "VoterRegistered",
      "type": "event"
    },
    {
      "inputs": [
        {
          "internalType": "uint256",
          "name": "_electionId",
          "type": "uint256"
        },
        {
          "internalType": "string",
          "name": "_name",
          "type": "string"
        },
        {
          "internalType": "string",
          "name": "_description",
          "type": "string"
        }
      ],
      "name": "addCandidate",
      "outputs": [
        {
          "internalType": "uint256",
          "name": "",
          "type": "uint256"
        }
      ],
      "stateMutability": "nonpayable",
      "type": "function"
    },
    {
      "inputs": [],
      "name": "admin",
      "outputs": [
        {
          "internalType": "address",
          "name": "",
          "type": "address"
        }
      ],
      "stateMutability": "view",
      "type": "function"
    },
    {
      "inputs": [
        {
          "internalType": "uint256",
          "name": "_electionId",
          "type": "uint256"
        },
        {
          "internalType": "uint256",
          "name": "_candidateId",
          "type": "uint256"
        }
      ],
      "name": "castVote",
      "outputs": [],
      "stateMutability": "nonpayable",
      "type": "function"
    },
    {
      "inputs": [
        {
          "internalType": "string",
          "name": "_title",
          "type": "string"
        },
        {
          "internalType": "string",
          "name": "_description",
          "type": "string"
        },
        {
          "internalType": "uint256",
          "name": "_startTime",
          "type": "uint256"
        },
        {
          "internalType": "uint256",
          "name": "_endTime",
          "type": "uint256"
        }
      ],
      "name": "createElection",
      "outputs": [
        {
          "internalType": "uint256",
          "name": "",
          "type": "uint256"
        }
      ],
      "stateMutability": "nonpayable",
      "type": "function"
    },
    {
      "inputs": [],
      "name": "electionCount",
      "outputs": [
        {
          "internalType": "uint256",
          "name": "",
          "type": "uint256"
        }
      ],
      "stateMutability": "view",
      "type": "function"
    },
    {
      "inputs": [
        {
          "internalType": "uint256",
          "name": "",
          "type": "uint256"
        }
      ],
      "name": "elections",
      "outputs": [
        {
          "internalType": "string",
          "name": "title",
          "type": "string"
        },
        {
          "internalType": "string",
          "name": "description",
          "type": "string"
        },
        {
          "internalType": "uint256",
          "name": "startTime",
          "type": "uint256"
        },
        {
          "internalType": "uint256",
          "name": "endTime",
          "type": "uint256"
        },
        {
          "internalType": "bool",
          "name": "isActive",
          "type": "bool"
        },
        {
          "internalType": "uint256",
          "name": "candidateCount",
          "type": "uint256"
        },
        {
          "internalType": "uint256",
          "name": "totalVotes",
          "type": "uint256"
        },
        {
          "internalType": "bool",
          "name": "resultsFinalized",
          "type": "bool"
        }
      ],
      "stateMutability": "view",
      "type": "function"
    },
    {
      "inputs": [
        {
          "internalType": "uint256",
          "name": "_electionId",
          "type": "uint256"
        }
      ],
      "name": "endElection",
      "outputs": [],
      "stateMutability": "nonpayable",
      "type": "function"
    },
    {
      "inputs": [
        {
          "internalType": "uint256",
          "name": "_electionId",
          "type": "uint256"
        }
      ],
      "name": "finalizeResults",
      "outputs": [],
      "stateMutability": "nonpayable",
      "type": "function"
    },
    {
      "inputs": [
        {
          "internalType": "uint256",
          "name": "_electionId",
          "type": "uint256"
        },
        {
          "internalType": "uint256",
          "name": "_candidateId",
          "type": "uint256"
        }
      ],
      "name": "getCandidate",
      "outputs": [
        {
          "internalType": "string",
          "name": "",
          "type": "string"
        },
        {
          "internalType": "string",
          "name": "",
          "type": "string"
        },
        {
          "internalType": "uint256",
          "name": "",
          "type": "uint256"
        }
      ],
      "stateMutability": "view",
      "type": "function"
    },
    {
      "inputs": [
        {
          "internalType": "uint256",
          "name": "_electionId",
          "type": "uint256"
        }
      ],
      "name": "getElectionResults",
      "outputs": [
        {
          "internalType": "uint256[]",
          "name": "",
          "type": "uint256[]"
        }
      ],
      "stateMutability": "view",
      "type": "function"
    },
    {
      "inputs": [
        {
          "internalType": "uint256",
          "name": "_electionId",
          "type": "uint256"
        }
      ],
      "name": "getElectionSummary",
      "outputs": [
        {
          "components": [
            {
              "internalType": "uint256",
              "name": "id",
              "type": "uint256"
            },
            {
              "internalType": "string",
              "name": "title",
              "type": "string"
            },
            {
              "internalType": "string",
              "name": "description",
              "type": "string"
            },
            {
              "internalType": "uint256",
              "name": "startTime",
              "type": "uint256"
            },
            {
              "internalType": "uint256",
              "name": "endTime",
              "type": "uint256"
            },
            {
              "internalType": "bool",
              "name": "isActive",
              "type": "bool"
            },
            {
              "internalType": "uint256",
              "name": "candidateCount",
              "type": "uint256"
            },
            {
              "internalType": "uint256",
              "name": "totalVotes",
              "type": "uint256"
            },
            {
              "internalType": "bool",
              "name": "resultsFinalized",
              "type": "bool"
            }
          ],
          "internalType": "struct VotingSystem.ElectionSummary",
          "name": "",
          "type": "tuple"
        }
      ],
      "stateMutability": "view",
      "type": "function"
    },
    {
      "inputs": [
        {
          "internalType": "uint256",
          "name": "_electionId",
          "type": "uint256"
        }
      ],
      "name": "getVoterCount",
      "outputs": [
        {
          "internalType": "uint256",
          "name": "",
          "type": "uint256"
        }
      ],
      "stateMutability": "view",
      "type": "function"
    },
    {
      "inputs": [
        {
          "internalType": "uint256",
          "name": "_electionId",
          "type": "uint256"
        },
        {
          "internalType": "address",
          "name": "_voter",
          "type": "address"
        }
      ],
      "name": "getVoterStatus",
      "outputs": [
        {
          "internalType": "bool",
          "name": "",
          "type": "bool"
        },
        {
          "internalType": "bool",
          "name": "",
          "type": "bool"
        }
      ],
      "stateMutability": "view",
      "type": "function"
    },
    {
      "inputs": [
        {
          "internalType": "uint256",
          "name": "_electionId",
          "type": "uint256"
        },
        {
          "internalType": "address",
          "name": "_voter",
          "type": "address"
        },
        {
          "internalType": "bytes32",
          "name": "_voterHash",
          "type": "bytes32"
        }
      ],
      "name": "registerVoter",
      "outputs": [],
      "stateMutability": "nonpayable",
      "type": "function"
    }
  ],
  "bytecode": "0x608060405234801561001057600080fd5b50600280546001600160a01b031916331790556000600155611912806100376000396000f3fe608060405234801561001057600080fd5b50600436106100ea5760003560e01c8063997d28301161008c578063e6c62efc11610066578063e6c62efc14610203578063e8ededa614610216578063e92e5c3414610236578063f851a4401461024957600080fd5b8063997d2830146101c75780639c98bcbb146101d0578063d9148f73146101e357600080fd5b80634bd46448116100c85780634bd464481461012a5780635e6fef01146101555780637ad36e841461017c578063942f56bd1461019d57600080fd5b80631978e0d3146100ef5780631d8f41e8146101045780632c0a3f8914610117575b600080fd5b6101026100fd3660046112b8565b610274565b005b6101026101123660046112ed565b610399565b610102610125366004611322565b61053a565b61013d610138366004611322565b610838565b60405161014c9392919061138a565b60405180910390f35b6101686101633660046112b8565b610a01565b60405161014c9897969594939291906113c0565b61018f61018a3660046114c0565b610b59565b60405190815260200161014c565b6101b06101ab366004611534565b610cf0565b60408051921515835290151560208301520161014c565b61018f60015481565b6101026101de3660046112b8565b610d4f565b6101f66101f13660046112b8565b610dbf565b60405161014c9190611560565b61018f610211366004611606565b610fcd565b6102296102243660046112b8565b611114565b60405161014c9190611673565b61018f6102443660046112b8565b61127d565b60025461025c906001600160a01b031681565b6040516001600160a01b03909116815260200161014c565b6002546001600160a01b031633146102a75760405162461bcd60e51b815260040161029e906116b7565b60405180910390fd5b8060015481106102c95760405162461bcd60e51b815260040161029e906116f9565b60008281526020819052604090206004015460ff1615806102fa575060008281526020819052604090206003015442115b61033e5760405162461bcd60e51b8152602060048201526015602482015274456c656374696f6e207374696c6c2061637469766560581b604482015260640161029e565b60008281526020818152604091829020600a8101805460ff19166001179055600701548251858152918201527f67d82b1b182df045662f3a6bad97695da6985ba731e94610accb92fb60ad95a2910160405180910390a15050565b6002546001600160a01b031633146103c35760405162461bcd60e51b815260040161029e906116b7565b8260015481106103e55760405162461bcd60e51b815260040161029e906116f9565b6000848152602081815260408083206001600160a01b038716845260080190915290205460ff16156104595760405162461bcd60e51b815260206004820152601860248201527f566f74657220616c726561647920726567697374657265640000000000000000604482015260640161029e565b60408051608081018252600180825260006020808401828152848601838152606086018981528b85528484528785206001600160a01b038c1680875260088201865289872098518954955161ffff1990961690151561ff00191617610100951515959095029490941788559151878701555160029096019590955582825260099094018054938401815582529081902090910180546001600160a01b031916831790558251878152908101919091527ff45b8429c36d478f9a6d081c4811a819b98aa5b608588bed9d406405cf28247391015b60405180910390a150505050565b81600154811061055c5760405162461bcd60e51b815260040161029e906116f9565b600083815260208190526040902060040154839060ff166105b85760405162461bcd60e51b8152602060048201526016602482015275456c656374696f6e206973206e6f742061637469766560501b604482015260640161029e565b6000818152602081905260409020600201544210156106195760405162461bcd60e51b815260206004820152601c60248201527f456c656374696f6e20686173206e6f7420737461727465642079657400000000604482015260640161029e565b60008181526020819052604090206003015442111561066f5760405162461bcd60e51b8152602060048201526012602482015271115b1958dd1a5bdb881a185cc8195b99195960721b604482015260640161029e565b60008481526020818152604080832033845260080190915290205460ff166106d05760405162461bcd60e51b8152602060048201526014602482015273159bdd195c881b9bdd081c9959da5cdd195c995960621b604482015260640161029e565b600084815260208181526040808320338452600801909152902054610100900460ff16156107405760405162461bcd60e51b815260206004820152601760248201527f566f7465722068617320616c726561647920766f746564000000000000000000604482015260640161029e565b60008481526020819052604090206006015483106107945760405162461bcd60e51b8152602060048201526011602482015270496e76616c69642063616e64696461746560781b604482015260640161029e565b600084815260208181526040808320338452600881018352818420805461ff00191661010017815560010187905586845260050190915281206002018054916107dc83611730565b909155505060008481526020819052604081206007018054916107fe83611730565b9091555050604080518581523360208201527ff1003b73c437642c0460aee9cd9628b0b8c447b66e6c7c905531b9c644214a11910161052c565b606080600084600154811061085f5760405162461bcd60e51b815260040161029e906116f9565b60008681526020819052604090206006015485106108b35760405162461bcd60e51b8152602060048201526011602482015270496e76616c69642063616e64696461746560781b604482015260640161029e565b6000868152602081815260408083208884526005019091529020600281015481548291600183019183906108e690611757565b80601f016020809104026020016040519081016040528092919081815260200182805461091290611757565b801561095f5780601f106109345761010080835404028352916020019161095f565b820191906000526020600020905b81548152906001019060200180831161094257829003601f168201915b5050505050925081805461097290611757565b80601f016020809104026020016040519081016040528092919081815260200182805461099e90611757565b80156109eb5780601f106109c0576101008083540402835291602001916109eb565b820191906000526020600020905b8154815290600101906020018083116109ce57829003601f168201915b5050505050915094509450945050509250925092565b600060208190529081526040902080548190610a1c90611757565b80601f0160208091040260200160405190810160405280929190818152602001828054610a4890611757565b8015610a955780601f10610a6a57610100808354040283529160200191610a95565b820191906000526020600020905b815481529060010190602001808311610a7857829003601f168201915b505050505090806001018054610aaa90611757565b80601f0160208091040260200160405190810160405280929190818152602001828054610ad690611757565b8015610b235780601f10610af857610100808354040283529160200191610b23565b820191906000526020600020905b815481529060010190602001808311610b0657829003601f168201915b50505060028401546003850154600486015460068701546007880154600a909801549697939692955060ff918216945092911688565b6002546000906001600160a01b03163314610b865760405162461bcd60e51b815260040161029e906116b7565b428311610bd55760405162461bcd60e51b815260206004820181905260248201527f53746172742074696d65206d75737420626520696e2074686520667574757265604482015260640161029e565b828211610c2e5760405162461bcd60e51b815260206004820152602160248201527f456e642074696d65206d7573742062652061667465722073746172742074696d6044820152606560f81b606482015260840161029e565b600154600081815260208190526040902080610c4a88826117da565b5060018101610c5987826117da565b506002810185905560038101849055600481018054600160ff19918216811790925560006006840181905560078401819055600a8401805490921690915581549190610ca483611730565b91905055507fe7a0aae5d733e07e246dea86213a1ac1b0aa8554bde889bb75c12752f44e53d982888787604051610cde949392919061189a565b60405180910390a15095945050505050565b600080836001548110610d155760405162461bcd60e51b815260040161029e906116f9565b5050506000918252602082815260408084206001600160a01b039390931684526008909201905290205460ff808216926101009092041690565b6002546001600160a01b03163314610d795760405162461bcd60e51b815260040161029e906116b7565b806001548110610d9b5760405162461bcd60e51b815260040161029e906116f9565b50600090815260208190526040902060048101805460ff1916905542600390910155565b610e12604051806101200160405280600081526020016060815260200160608152602001600081526020016000815260200160001515815260200160008152602001600081526020016000151581525090565b816001548110610e345760405162461bcd60e51b815260040161029e906116f9565b600083815260208181526040918290208251610120810190935285835280549092918201908390610e6490611757565b80601f0160208091040260200160405190810160405280929190818152602001828054610e9090611757565b8015610edd5780601f10610eb257610100808354040283529160200191610edd565b820191906000526020600020905b815481529060010190602001808311610ec057829003601f168201915b50505050508152602001826001018054610ef690611757565b80601f0160208091040260200160405190810160405280929190818152602001828054610f2290611757565b8015610f6f5780601f10610f4457610100808354040283529160200191610f6f565b820191906000526020600020905b815481529060010190602001808311610f5257829003601f168201915b50505091835250506002830154602082015260038301546040820152600483015460ff9081161515606083015260068401546080830152600784015460a0830152600a90930154909216151560c09092019190915291505b50919050565b6002546000906001600160a01b03163314610ffa5760405162461bcd60e51b815260040161029e906116b7565b83600154811061101c5760405162461bcd60e51b815260040161029e906116f9565b6000858152602081905260409020600a015460ff161561107e5760405162461bcd60e51b815260206004820152601e60248201527f456c656374696f6e20726573756c7473206172652066696e616c697a65640000604482015260640161029e565b6000858152602081815260408083206006810154825160608101845289815280850189905280840186905281865260059092019093529220825191929181906110c790826117da565b50602082015160018201906110dc90826117da565b506040918201516002909101556000878152602081905290812060060180549161110583611730565b90915550909695505050505050565b60608160015481106111385760405162461bcd60e51b815260040161029e906116f9565b6000838152602081905260409020600a015460ff1680611168575060008381526020819052604090206003015442115b6111b45760405162461bcd60e51b815260206004820152601960248201527f526573756c7473206e6f7420617661696c61626c652079657400000000000000604482015260640161029e565b60008381526020819052604081206006015467ffffffffffffffff8111156111de576111de61141d565b604051908082528060200260200182016040528015611207578160200160208202803683370190505b50905060005b600085815260208190526040902060060154811015611275576000858152602081815260408083208484526005019091529020600201548251839083908110611258576112586118c6565b60209081029190910101528061126d81611730565b91505061120d565b509392505050565b60008160015481106112a15760405162461bcd60e51b815260040161029e906116f9565b505060009081526020819052604090206009015490565b6000602082840312156112ca57600080fd5b5035919050565b80356001600160a01b03811681146112e857600080fd5b919050565b60008060006060848603121561130257600080fd5b83359250611312602085016112d1565b9150604084013590509250925092565b6000806040838503121561133557600080fd5b50508035926020909101359150565b6000815180845260005b8181101561136a5760208185018101518683018201520161134e565b506000602082860101526020601f19601f83011685010191505092915050565b60608152600061139d6060830186611344565b82810360208401526113af8186611344565b915050826040830152949350505050565b60006101008083526113d48184018c611344565b905082810360208401526113e8818b611344565b604084019990995250506060810195909552921515608085015260a084019190915260c0830152151560e09091015292915050565b634e487b7160e01b600052604160045260246000fd5b600082601f83011261144457600080fd5b813567ffffffffffffffff8082111561145f5761145f61141d565b604051601f8301601f19908116603f011681019082821181831017156114875761148761141d565b816040528381528660208588010111156114a057600080fd5b836020870160208301376000602085830101528094505050505092915050565b600080600080608085870312156114d657600080fd5b843567ffffffffffffffff808211156114ee57600080fd5b6114fa88838901611433565b9550602087013591508082111561151057600080fd5b5061151d87828801611433565b949794965050505060408301359260600135919050565b6000806040838503121561154757600080fd5b82359150611557602084016112d1565b90509250929050565b602081528151602082015260006020830151610120806040850152611589610140850183611344565b91506040850151601f198584030160608601526115a68382611344565b92505060608501516080850152608085015160a085015260a08501516115d060c086018215159052565b5060c085015160e085015260e08501516101008181870152808701519150506115fc8286018215159052565b5090949350505050565b60008060006060848603121561161b57600080fd5b83359250602084013567ffffffffffffffff8082111561163a57600080fd5b61164687838801611433565b9350604086013591508082111561165c57600080fd5b5061166986828701611433565b9150509250925092565b6020808252825182820181905260009190848201906040850190845b818110156116ab5783518352928401929184019160010161168f565b50909695505050505050565b60208082526022908201527f4f6e6c792061646d696e2063616e20706572666f726d2074686973206163746960408201526137b760f11b606082015260800190565b60208082526017908201527f456c656374696f6e20646f6573206e6f74206578697374000000000000000000604082015260600190565b60006001820161175057634e487b7160e01b600052601160045260246000fd5b5060010190565b600181811c9082168061176b57607f821691505b602082108103610fc757634e487b7160e01b600052602260045260246000fd5b601f8211156117d557600081815260208120601f850160051c810160208610156117b25750805b601f850160051c820191505b818110156117d1578281556001016117be565b5050505b505050565b815167ffffffffffffffff8111156117f4576117f461141d565b611808816118028454611757565b8461178b565b602080601f83116001811461183d57600084156118255750858301515b600019600386901b1c1916600185901b1785556117d1565b600085815260208120601f198616915b8281101561186c5788860151825594840194600190910190840161184d565b508582101561188a5787850151600019600388901b60f8161c191681555b5050505050600190811b01905550565b8481526080602082015260006118b36080830186611344565b6040830194909452506060015292915050565b634e487b7160e01b600052603260045260246000fdfea264697066735822122059f3ded8e638cb28d1cfc11a66f40ccb58ad503ce787e077b1f9f9e50e78bfb064736f6c63430008110033",
  "linkReferences": {},
  "deployedLinkReferences": {}
}