{
  "_format": "hh-sol-artifact-1",
  "contractName": "VotingSystem_WithToken",
  "sourceName": "contracts/VotingSystem_WithToken.sol",
  "abi": [
    {
      "inputs": [
        {
          "internalType": "address",
          "name": "_votingTokenAddress",
          "type": "address"
        }
      ],
      "stateMutability": "nonpayable",
      "type": "constructor"
    },
    {
      "anonymous": false,
      "inputs": [
        {
          "indexed": true,
          "internalType": "uint256",
          "name": "electionId",
          "type": "uint256"
        },
        {
          "indexed": false,
          "internalType": "uint256",
          "name": "candidateId",
          "type": "uint256"
        },
        {
          "indexed": false,
          "internalType": "string",
          "name": "name",
          "type": "string"
        }
      ],
      "name": "CandidateAdded",
      "type": "event"
    },
    {
      "anonymous": false,
      "inputs": [
        {
          "indexed": true,
          "internalType": "uint256",
          "name": "electionId",
          "type": "uint256"
        },
        {
          "indexed": false,
          "internalType": "string",
          "name": "title",
          "type": "string"
        }
      ],
      "name": "ElectionCreated",
      "type": "event"
    },
    {
      "anonymous": false,
      "inputs": [
        {
          "indexed": true,
          "internalType": "uint256",
          "name": "electionId",
          "type": "uint256"
        },
        {
          "indexed": false,
          "internalType": "bool",
          "name": "isActive",
          "type": "bool"
        }
      ],
      "name": "ElectionStatusChanged",
      "type": "event"
    },
    {
      "anonymous": false,
      "inputs": [
        {
          "indexed": true,
          "internalType": "address",
          "name": "operator",
          "type": "address"
        }
      ],
      "name": "OperatorAdded",
      "type": "event"
    },
    {
      "anonymous": false,
      "inputs": [
        {
          "indexed": true,
          "internalType": "address",
          "name": "operator",
          "type": "address"
        }
      ],
      "name": "OperatorRemoved",
      "type": "event"
    },
    {
      "anonymous": false,
      "inputs": [
        {
          "indexed": true,
          "internalType": "uint256",
          "name": "electionId",
          "type": "uint256"
        }
      ],
      "name": "ResultsFinalized",
      "type": "event"
    },
    {
      "anonymous": false,
      "inputs": [
        {
          "indexed": true,
          "internalType": "address",
          "name": "voter",
          "type": "address"
        },
        {
          "indexed": false,
          "internalType": "uint256",
          "name": "amount",
          "type": "uint256"
        }
      ],
      "name": "TokensSpent",
      "type": "event"
    },
    {
      "anonymous": false,
      "inputs": [
        {
          "indexed": true,
          "internalType": "address",
          "name": "voter",
          "type": "address"
        },
        {
          "indexed": true,
          "internalType": "uint256",
          "name": "electionId",
          "type": "uint256"
        },
        {
          "indexed": false,
          "internalType": "uint256",
          "name": "candidateId",
          "type": "uint256"
        }
      ],
      "name": "VoteCast",
      "type": "event"
    },
    {
      "anonymous": false,
      "inputs": [
        {
          "indexed": true,
          "internalType": "address",
          "name": "voter",
          "type": "address"
        },
        {
          "indexed": true,
          "internalType": "uint256",
          "name": "electionId",
          "type": "uint256"
        }
      ],
      "name": "VoterRegistered",
      "type": "event"
    },
    {
      "inputs": [],
      "name": "TOKENS_REQUIRED_TO_VOTE",
      "outputs": [
        {
          "internalType": "uint256",
          "name": "",
          "type": "uint256"
        }
      ],
      "stateMutability": "view",
      "type": "function"
    },
    {
      "inputs": [
        {
          "internalType": "address",
          "name": "_operator",
          "type": "address"
        }
      ],
      "name": "addAuthorizedOperator",
      "outputs": [],
      "stateMutability": "nonpayable",
      "type": "function"
    },
    {
      "inputs": [
        {
          "internalType": "uint256",
          "name": "_electionId",
          "type": "uint256"
        },
        {
          "internalType": "string",
          "name": "_name",
          "type": "string"
        },
        {
          "internalType": "string",
          "name": "_description",
          "type": "string"
        }
      ],
      "name": "addCandidate",
      "outputs": [],
      "stateMutability": "nonpayable",
      "type": "function"
    },
    {
      "inputs": [],
      "name": "admin",
      "outputs": [
        {
          "internalType": "address",
          "name": "",
          "type": "address"
        }
      ],
      "stateMutability": "view",
      "type": "function"
    },
    {
      "inputs": [
        {
          "internalType": "address",
          "name": "",
          "type": "address"
        }
      ],
      "name": "authorizedOperators",
      "outputs": [
        {
          "internalType": "bool",
          "name": "",
          "type": "bool"
        }
      ],
      "stateMutability": "view",
      "type": "function"
    },
    {
      "inputs": [
        {
          "internalType": "uint256",
          "name": "_electionId",
          "type": "uint256"
        },
        {
          "internalType": "address",
          "name": "_voter",
          "type": "address"
        }
      ],
      "name": "canVote",
      "outputs": [
        {
          "internalType": "bool",
          "name": "",
          "type": "bool"
        }
      ],
      "stateMutability": "view",
      "type": "function"
    },
    {
      "inputs": [
        {
          "internalType": "uint256",
          "name": "_electionId",
          "type": "uint256"
        },
        {
          "internalType": "uint256",
          "name": "_candidateId",
          "type": "uint256"
        }
      ],
      "name": "castVote",
      "outputs": [],
      "stateMutability": "nonpayable",
      "type": "function"
    },
    {
      "inputs": [
        {
          "internalType": "string",
          "name": "_title",
          "type": "string"
        },
        {
          "internalType": "string",
          "name": "_description",
          "type": "string"
        },
        {
          "internalType": "uint256",
          "name": "_startTime",
          "type": "uint256"
        },
        {
          "internalType": "uint256",
          "name": "_endTime",
          "type": "uint256"
        }
      ],
      "name": "createElection",
      "outputs": [
        {
          "internalType": "uint256",
          "name": "",
          "type": "uint256"
        }
      ],
      "stateMutability": "nonpayable",
      "type": "function"
    },
    {
      "inputs": [],
      "name": "electionCount",
      "outputs": [
        {
          "internalType": "uint256",
          "name": "",
          "type": "uint256"
        }
      ],
      "stateMutability": "view",
      "type": "function"
    },
    {
      "inputs": [
        {
          "internalType": "uint256",
          "name": "",
          "type": "uint256"
        }
      ],
      "name": "elections",
      "outputs": [
        {
          "internalType": "string",
          "name": "title",
          "type": "string"
        },
        {
          "internalType": "string",
          "name": "description",
          "type": "string"
        },
        {
          "internalType": "uint256",
          "name": "startTime",
          "type": "uint256"
        },
        {
          "internalType": "uint256",
          "name": "endTime",
          "type": "uint256"
        },
        {
          "internalType": "bool",
          "name": "isActive",
          "type": "bool"
        },
        {
          "internalType": "uint256",
          "name": "candidateCount",
          "type": "uint256"
        },
        {
          "internalType": "uint256",
          "name": "totalVotes",
          "type": "uint256"
        },
        {
          "internalType": "bool",
          "name": "resultsFinalized",
          "type": "bool"
        },
        {
          "internalType": "address",
          "name": "creator",
          "type": "address"
        },
        {
          "internalType": "uint256",
          "name": "createdAt",
          "type": "uint256"
        },
        {
          "internalType": "uint256",
          "name": "updatedAt",
          "type": "uint256"
        }
      ],
      "stateMutability": "view",
      "type": "function"
    },
    {
      "inputs": [
        {
          "internalType": "uint256",
          "name": "_electionId",
          "type": "uint256"
        }
      ],
      "name": "finalizeElection",
      "outputs": [],
      "stateMutability": "nonpayable",
      "type": "function"
    },
    {
      "inputs": [
        {
          "internalType": "uint256",
          "name": "_electionId",
          "type": "uint256"
        },
        {
          "internalType": "uint256",
          "name": "_candidateId",
          "type": "uint256"
        }
      ],
      "name": "getCandidateInfo",
      "outputs": [
        {
          "internalType": "string",
          "name": "name",
          "type": "string"
        },
        {
          "internalType": "string",
          "name": "description",
          "type": "string"
        },
        {
          "internalType": "uint256",
          "name": "voteCount",
          "type": "uint256"
        }
      ],
      "stateMutability": "view",
      "type": "function"
    },
    {
      "inputs": [
        {
          "internalType": "uint256",
          "name": "_electionId",
          "type": "uint256"
        }
      ],
      "name": "getElectionInfo",
      "outputs": [
        {
          "internalType": "string",
          "name": "title",
          "type": "string"
        },
        {
          "internalType": "string",
          "name": "description",
          "type": "string"
        },
        {
          "internalType": "uint256",
          "name": "startTime",
          "type": "uint256"
        },
        {
          "internalType": "uint256",
          "name": "endTime",
          "type": "uint256"
        },
        {
          "internalType": "bool",
          "name": "isActive",
          "type": "bool"
        },
        {
          "internalType": "uint256",
          "name": "candidateCount",
          "type": "uint256"
        },
        {
          "internalType": "uint256",
          "name": "totalVotes",
          "type": "uint256"
        },
        {
          "internalType": "bool",
          "name": "resultsFinalized",
          "type": "bool"
        },
        {
          "internalType": "address",
          "name": "creator",
          "type": "address"
        },
        {
          "internalType": "uint256",
          "name": "createdAt",
          "type": "uint256"
        }
      ],
      "stateMutability": "view",
      "type": "function"
    },
    {
      "inputs": [
        {
          "internalType": "uint256",
          "name": "_electionId",
          "type": "uint256"
        }
      ],
      "name": "getVoterAddresses",
      "outputs": [
        {
          "internalType": "address[]",
          "name": "",
          "type": "address[]"
        }
      ],
      "stateMutability": "view",
      "type": "function"
    },
    {
      "inputs": [
        {
          "internalType": "uint256",
          "name": "_electionId",
          "type": "uint256"
        },
        {
          "internalType": "address",
          "name": "_voter",
          "type": "address"
        }
      ],
      "name": "getVoterInfo",
      "outputs": [
        {
          "internalType": "bool",
          "name": "isRegistered",
          "type": "bool"
        },
        {
          "internalType": "bool",
          "name": "hasVoted",
          "type": "bool"
        },
        {
          "internalType": "uint256",
          "name": "voteTimestamp",
          "type": "uint256"
        },
        {
          "internalType": "uint256",
          "name": "vote",
          "type": "uint256"
        },
        {
          "internalType": "bytes32",
          "name": "voterHash",
          "type": "bytes32"
        }
      ],
      "stateMutability": "view",
      "type": "function"
    },
    {
      "inputs": [
        {
          "internalType": "address",
          "name": "_operator",
          "type": "address"
        }
      ],
      "name": "isAuthorizedOperator",
      "outputs": [
        {
          "internalType": "bool",
          "name": "",
          "type": "bool"
        }
      ],
      "stateMutability": "view",
      "type": "function"
    },
    {
      "inputs": [
        {
          "internalType": "uint256",
          "name": "_electionId",
          "type": "uint256"
        },
        {
          "internalType": "address",
          "name": "_voter",
          "type": "address"
        }
      ],
      "name": "registerVoter",
      "outputs": [],
      "stateMutability": "nonpayable",
      "type": "function"
    },
    {
      "inputs": [
        {
          "internalType": "address",
          "name": "_operator",
          "type": "address"
        }
      ],
      "name": "removeAuthorizedOperator",
      "outputs": [],
      "stateMutability": "nonpayable",
      "type": "function"
    },
    {
      "inputs": [],
      "name": "votingToken",
      "outputs": [
        {
          "internalType": "contract VotingToken",
          "name": "",
          "type": "address"
        }
      ],
      "stateMutability": "view",
      "type": "function"
    },
    {
      "inputs": [
        {
          "internalType": "address",
          "name": "_to",
          "type": "address"
        },
        {
          "internalType": "uint256",
          "name": "_amount",
          "type": "uint256"
        }
      ],
      "name": "withdrawTokens",
      "outputs": [],
      "stateMutability": "nonpayable",
      "type": "function"
    }
  ],
  "bytecode": "0x60806040523480156200001157600080fd5b5060405162002362380380620023628339810160408190526200003491620000e0565b60016000556001600160a01b038116620000945760405162461bcd60e51b815260206004820152601b60248201527f446972656363696f6e20646520746f6b656e20696e76616c6964610000000000604482015260640160405180910390fd5b600180546001600160a01b039092166001600160a01b03199283161781556002805490921633908117909255600091825260036020526040909120805460ff1916909117905562000112565b600060208284031215620000f357600080fd5b81516001600160a01b03811681146200010b57600080fd5b9392505050565b61224080620001226000396000f3fe608060405234801561001057600080fd5b506004361061012c5760003560e01c806394c790bb116100ad578063ce99b5df11610071578063ce99b5df146102d9578063e3f8a79c14610302578063e6c62efc14610315578063f851a44014610328578063fbc759a11461033b57600080fd5b806394c790bb1461025f578063997d283014610272578063b03401231461027b578063c5326ebc146102a6578063cdb2867b146102c657600080fd5b80635e6fef01116100f45780635e6fef01146101b757806373a12f5a146101e15780637ad36e841461020357806382d52c1e14610224578063929504a11461025057600080fd5b806306b091f9146101315780631537052e14610146578063181d989b146101595780632c0a3f8914610191578063404d2cf8146101a4575b600080fd5b61014461013f366004611b94565b610378565b005b610144610154366004611bbe565b610518565b61017c610167366004611bd7565b60036020526000908152604090205460ff1681565b60405190151581526020015b60405180910390f35b61014461019f366004611bf9565b610621565b6101446101b2366004611bd7565b610b1e565b6101ca6101c5366004611bbe565b610c41565b6040516101889b9a99989796959493929190611c61565b6101f46101ef366004611bf9565b610db7565b60405161018893929190611cdc565b610216610211366004611db5565b610f8c565b604051908152602001610188565b61017c610232366004611bd7565b6001600160a01b031660009081526003602052604090205460ff1690565b610216670de0b6b3a764000081565b61014461026d366004611e29565b611225565b61021660055481565b60015461028e906001600160a01b031681565b6040516001600160a01b039091168152602001610188565b6102b96102b4366004611bbe565b611428565b6040516101889190611e55565b61017c6102d4366004611e29565b6114b8565b6102ec6102e7366004611bbe565b61162d565b6040516101889a99989796959493929190611ea2565b610144610310366004611bd7565b6117f5565b610144610323366004611f17565b6118c9565b60025461028e906001600160a01b031681565b61034e610349366004611e29565b611aa5565b6040805195151586529315156020860152928401919091526060830152608082015260a001610188565b6002546001600160a01b031633146103ab5760405162461bcd60e51b81526004016103a290611f84565b60405180910390fd5b6001600160a01b0382166104015760405162461bcd60e51b815260206004820152601d60248201527f446972656363696f6e2064652064657374696e6f20696e76616c69646100000060448201526064016103a2565b600081116104515760405162461bcd60e51b815260206004820152601e60248201527f456c206d6f6e746f206465626520736572206d61796f722061206365726f000060448201526064016103a2565b60015460405163a9059cbb60e01b81526001600160a01b038481166004830152602482018490529091169063a9059cbb906044016020604051808303816000875af11580156104a4573d6000803e3d6000fd5b505050506040513d601f19601f820116820180604052508101906104c89190611fd4565b6105145760405162461bcd60e51b815260206004820152601a60248201527f4572726f7220616c207472616e73666572697220746f6b656e7300000000000060448201526064016103a2565b5050565b6002546001600160a01b031633146105425760405162461bcd60e51b81526004016103a290611f84565b60055481106105635760405162461bcd60e51b81526004016103a290611ff6565b6000818152600460205260409020600a015460ff16156105c15760405162461bcd60e51b8152602060048201526019602482015278526573756c7461646f732079612066696e616c697a61646f7360381b60448201526064016103a2565b6000818152600460208190526040808320918201805460ff19908116909155600a83018054909116600117905542600c909201919091555182917f63766cd591e04cb4e6efcfaaea14aad1fb0f36f02ce7c571b65b405c9dfebbcc91a250565b610629611b1f565b600554821061064a5760405162461bcd60e51b81526004016103a290611ff6565b6000828152600460208190526040909120015460ff166106a15760405162461bcd60e51b8152602060048201526012602482015271456c656363696f6e206e6f2061637469766160701b60448201526064016103a2565b6000828152600460205260409020600201544210156106f95760405162461bcd60e51b8152602060048201526014602482015273456c656363696f6e206e6f20696e69636961646160601b60448201526064016103a2565b6000828152600460205260409020600301544211156107505760405162461bcd60e51b8152602060048201526013602482015272456c656363696f6e2066696e616c697a61646160681b60448201526064016103a2565b600082815260046020908152604080832033845260080190915290205460ff166107b45760405162461bcd60e51b8152602060048201526015602482015274566f74616e7465206e6f207265676973747261646f60581b60448201526064016103a2565b6000828152600460209081526040808320338452600801909152902054610100900460ff16156108265760405162461bcd60e51b815260206004820152601b60248201527f596120766f746173746520656e206573746120656c656363696f6e000000000060448201526064016103a2565b600082815260046020526040902060060154811061087b5760405162461bcd60e51b815260206004820152601260248201527143616e64696461746f20696e76616c69646f60701b60448201526064016103a2565b6001546040516370a0823160e01b8152336004820152670de0b6b3a7640000916001600160a01b0316906370a0823190602401602060405180830381865afa1580156108cb573d6000803e3d6000fd5b505050506040513d601f19601f820116820180604052508101906108ef9190612026565b101561093d5760405162461bcd60e51b815260206004820152601f60248201527f546f6b656e7320696e737566696369656e746573207061726120766f7461720060448201526064016103a2565b6001546040516323b872dd60e01b8152336004820152306024820152670de0b6b3a764000060448201526001600160a01b03909116906323b872dd906064016020604051808303816000875af115801561099b573d6000803e3d6000fd5b505050506040513d601f19601f820116820180604052508101906109bf9190611fd4565b610a0b5760405162461bcd60e51b815260206004820152601a60248201527f4572726f7220616c207472616e73666572697220746f6b656e7300000000000060448201526064016103a2565b6000828152600460209081526040808320338452600881018352818420805461ff00191661010017815542600182015560029081018690558585526005909101909252822001805491610a5d8361203f565b90915550506000828152600460205260408120600701805491610a7f8361203f565b90915550506000828152600460205260409081902042600c9091015551829033907fb4cfecf70861b7b150d8337780d34fb4cbc2114b5fb1fe51a5c5fca1849f727490610acf9085815260200190565b60405180910390a3604051670de0b6b3a7640000815233907f2efa3c8729bb4709645a357fcbdacbae23c038445bdb417a51d8c1dcc68be4659060200160405180910390a26105146001600055565b6002546001600160a01b03163314610b485760405162461bcd60e51b81526004016103a290611f84565b6001600160a01b038116610b935760405162461bcd60e51b8152602060048201526012602482015271446972656363696f6e20696e76616c69646160701b60448201526064016103a2565b6001600160a01b03811660009081526003602052604090205460ff1615610bf55760405162461bcd60e51b81526020600482015260166024820152754f70657261646f72207961206175746f72697a61646f60501b60448201526064016103a2565b6001600160a01b038116600081815260036020526040808220805460ff19166001179055517fac6fa858e9350a46cec16539926e0fde25b7629f84b5a72bffaae4df888ae86d9190a250565b600460205260009081526040902080548190610c5c90612066565b80601f0160208091040260200160405190810160405280929190818152602001828054610c8890612066565b8015610cd55780601f10610caa57610100808354040283529160200191610cd5565b820191906000526020600020905b815481529060010190602001808311610cb857829003601f168201915b505050505090806001018054610cea90612066565b80601f0160208091040260200160405190810160405280929190818152602001828054610d1690612066565b8015610d635780601f10610d3857610100808354040283529160200191610d63565b820191906000526020600020905b815481529060010190602001808311610d4657829003601f168201915b5050505060028301546003840154600485015460068601546007870154600a880154600b890154600c909901549798959794965060ff93841695929491938116926101009091046001600160a01b0316918b565b60608060006005548510610ddd5760405162461bcd60e51b81526004016103a290611ff6565b6000858152600460205260409020600601548410610e3d5760405162461bcd60e51b815260206004820152601760248201527f43616e64696461746f206e6f20656e636f6e747261646f00000000000000000060448201526064016103a2565b6000858152600460209081526040808320878452600501909152902060028101548154829160018301918390610e7290612066565b80601f0160208091040260200160405190810160405280929190818152602001828054610e9e90612066565b8015610eeb5780601f10610ec057610100808354040283529160200191610eeb565b820191906000526020600020905b815481529060010190602001808311610ece57829003601f168201915b50505050509250818054610efe90612066565b80601f0160208091040260200160405190810160405280929190818152602001828054610f2a90612066565b8015610f775780601f10610f4c57610100808354040283529160200191610f77565b820191906000526020600020905b815481529060010190602001808311610f5a57829003601f168201915b50505050509150935093509350509250925092565b6002546000906001600160a01b0316331480610fb757503360009081526003602052604090205460ff165b610fd35760405162461bcd60e51b81526004016103a2906120a0565b60008551116110245760405162461bcd60e51b815260206004820152601e60248201527f456c20746974756c6f206e6f20707565646520657374617220766163696f000060448201526064016103a2565b60008451116110815760405162461bcd60e51b815260206004820152602360248201527f4c61206465736372697063696f6e206e6f20707565646520657374617220766160448201526263696160e81b60648201526084016103a2565b4283116110e05760405162461bcd60e51b815260206004820152602760248201527f4c6120686f726120646520696e6963696f20646562652073657220656e20656c6044820152662066757475726f60c81b60648201526084016103a2565b82821161114d5760405162461bcd60e51b815260206004820152603560248201527f4c6120686f72612064652066696e20646562652073657220706f73746572696f604482015274722061206c6120686f726120646520696e6963696f60581b60648201526084016103a2565b600580546000918261115e8361203f565b9091555060008181526004602052604090209091508061117e8882612116565b506001810161118d8782612116565b50600281018590556003810184905560048101805460ff191660011790556000600682018190556007820155600a810180543361010002610100600160a81b031990911617905542600b8201819055600c82015560405182907f52be7c4e77b4de76b7607d621492061fe13b58597e72dfb5e51ab8f6187ed14190611213908a906121d6565b60405180910390a25095945050505050565b6002546001600160a01b031633148061124d57503360009081526003602052604090205460ff165b6112695760405162461bcd60e51b81526004016103a2906120a0565b600554821061128a5760405162461bcd60e51b81526004016103a290611ff6565b60008281526004602090815260408083206001600160a01b038516845260080190915290205460ff16156112f85760405162461bcd60e51b8152602060048201526015602482015274566f74616e7465207961207265676973747261646f60581b60448201526064016103a2565b6040518060a001604052806001151581526020016000151581526020016000815260200160008152602001824260405160200161135392919060609290921b6bffffffffffffffffffffffff19168252601482015260340190565b60408051601f198184030181529181528151602092830120909252600085815260048083528382206001600160a01b038716808452600882018552858420875181548988015115156101000261ff00199215159290921661ffff1990911617178155878701516001808301919091556060890151600283015560809098015160039091015591845260090180549586018155825291812090930180546001600160a01b03191682179055905184927ff16ce2c2236e2c6e3df646f80d657bceef4cd7f3a240c47e82adfa17a5f4724191a35050565b6060600554821061144b5760405162461bcd60e51b81526004016103a290611ff6565b600082815260046020908152604091829020600901805483518184028101840190945280845290918301828280156114ac57602002820191906000526020600020905b81546001600160a01b0316815260019091019060200180831161148e575b50505050509050919050565b600060055483106114cb57506000611627565b6000838152600460208190526040909120015460ff166114ed57506000611627565b60008381526004602052604090206002015442101561150e57506000611627565b60008381526004602052604090206003015442111561152f57506000611627565b60008381526004602090815260408083206001600160a01b038616845260080190915290205460ff1661156457506000611627565b60008381526004602090815260408083206001600160a01b0386168452600801909152902054610100900460ff161561159f57506000611627565b6001546040516370a0823160e01b81526001600160a01b038481166004830152670de0b6b3a76400009216906370a0823190602401602060405180830381865afa1580156115f1573d6000803e3d6000fd5b505050506040513d601f19601f820116820180604052508101906116159190612026565b101561162357506000611627565b5060015b92915050565b6060806000806000806000806000806005548b1061165d5760405162461bcd60e51b81526004016103a290611ff6565b60008b8152600460208190526040909120600281015460038201549282015460068301546007840154600a850154600b860154865496978897600189019796919560ff9283169590949093928116926101009091046001600160a01b0316918a906116c790612066565b80601f01602080910402602001604051908101604052809291908181526020018280546116f390612066565b80156117405780601f1061171557610100808354040283529160200191611740565b820191906000526020600020905b81548152906001019060200180831161172357829003601f168201915b5050505050995088805461175390612066565b80601f016020809104026020016040519081016040528092919081815260200182805461177f90612066565b80156117cc5780601f106117a1576101008083540402835291602001916117cc565b820191906000526020600020905b8154815290600101906020018083116117af57829003601f168201915b505050505098509a509a509a509a509a509a509a509a509a509a50509193959799509193959799565b6002546001600160a01b0316331461181f5760405162461bcd60e51b81526004016103a290611f84565b6001600160a01b03811660009081526003602052604090205460ff166118805760405162461bcd60e51b81526020600482015260166024820152754f70657261646f72206e6f206175746f72697a61646f60501b60448201526064016103a2565b6001600160a01b038116600081815260036020526040808220805460ff19169055517f80c0b871b97b595b16a7741c1b06fed0c6f6f558639f18ccbce50724325dc40d9190a250565b6002546001600160a01b03163314806118f157503360009081526003602052604090205460ff165b61190d5760405162461bcd60e51b81526004016103a2906120a0565b600554831061192e5760405162461bcd60e51b81526004016103a290611ff6565b6000838152600460205260409020600a015460ff161561198c5760405162461bcd60e51b8152602060048201526019602482015278526573756c7461646f732079612066696e616c697a61646f7360381b60448201526064016103a2565b60008251116119dd5760405162461bcd60e51b815260206004820152601e60248201527f456c206e6f6d627265206e6f20707565646520657374617220766163696f000060448201526064016103a2565b600083815260046020526040812060068101805491929190826119ff8361203f565b9091555060408051606081018252868152602080820187905260008284018190528481526005870190915291909120815192935090918190611a419082612116565b5060208201516001820190611a569082612116565b5060408201518160020155905050847fed8911b3df733b7d5f75724158e54478ea12e30f49c9d31b5261879f5b76586f8286604051611a969291906121e9565b60405180910390a25050505050565b60008060008060006005548710611ace5760405162461bcd60e51b81526004016103a290611ff6565b505050600093845250506004602090815260408084206001600160a01b0393909316845260089092019052902080546001820154600283015460039093015460ff8084169561010090940416939192565b600260005403611b715760405162461bcd60e51b815260206004820152601f60248201527f5265656e7472616e637947756172643a207265656e7472616e742063616c6c0060448201526064016103a2565b6002600055565b80356001600160a01b0381168114611b8f57600080fd5b919050565b60008060408385031215611ba757600080fd5b611bb083611b78565b946020939093013593505050565b600060208284031215611bd057600080fd5b5035919050565b600060208284031215611be957600080fd5b611bf282611b78565b9392505050565b60008060408385031215611c0c57600080fd5b50508035926020909101359150565b6000815180845260005b81811015611c4157602081850181015186830182015201611c25565b506000602082860101526020601f19601f83011685010191505092915050565b6000610160808352611c758184018f611c1b565b90508281036020840152611c89818e611c1b565b604084019c909c5250506060810198909852951515608088015260a087019490945260c0860192909252151560e08501526001600160a01b03166101008401526101208301526101409091015292915050565b606081526000611cef6060830186611c1b565b8281036020840152611d018186611c1b565b915050826040830152949350505050565b634e487b7160e01b600052604160045260246000fd5b600082601f830112611d3957600080fd5b813567ffffffffffffffff80821115611d5457611d54611d12565b604051601f8301601f19908116603f01168101908282118183101715611d7c57611d7c611d12565b81604052838152866020858801011115611d9557600080fd5b836020870160208301376000602085830101528094505050505092915050565b60008060008060808587031215611dcb57600080fd5b843567ffffffffffffffff80821115611de357600080fd5b611def88838901611d28565b95506020870135915080821115611e0557600080fd5b50611e1287828801611d28565b949794965050505060408301359260600135919050565b60008060408385031215611e3c57600080fd5b82359150611e4c60208401611b78565b90509250929050565b6020808252825182820181905260009190848201906040850190845b81811015611e965783516001600160a01b031683529284019291840191600101611e71565b50909695505050505050565b6000610140808352611eb68184018e611c1b565b90508281036020840152611eca818d611c1b565b604084019b909b5250506060810197909752941515608087015260a086019390935260c0850191909152151560e08401526001600160a01b03166101008301526101209091015292915050565b600080600060608486031215611f2c57600080fd5b83359250602084013567ffffffffffffffff80821115611f4b57600080fd5b611f5787838801611d28565b93506040860135915080821115611f6d57600080fd5b50611f7a86828701611d28565b9150509250925092565b60208082526030908201527f536f6c6f20656c2061646d696e6973747261646f72207075656465207265616c60408201526f34bd30b91032b9ba309030b1b1b4b7b760811b606082015260800190565b600060208284031215611fe657600080fd5b81518015158114611bf257600080fd5b602080825260169082015275456c656363696f6e206e6f20656e636f6e747261646160501b604082015260600190565b60006020828403121561203857600080fd5b5051919050565b60006001820161205f57634e487b7160e01b600052601160045260246000fd5b5060010190565b600181811c9082168061207a57607f821691505b60208210810361209a57634e487b7160e01b600052602260045260246000fd5b50919050565b6020808252600d908201526c4e6f206175746f72697a61646f60981b604082015260600190565b601f82111561211157600081815260208120601f850160051c810160208610156120ee5750805b601f850160051c820191505b8181101561210d578281556001016120fa565b5050505b505050565b815167ffffffffffffffff81111561213057612130611d12565b6121448161213e8454612066565b846120c7565b602080601f83116001811461217957600084156121615750858301515b600019600386901b1c1916600185901b17855561210d565b600085815260208120601f198616915b828110156121a857888601518255948401946001909101908401612189565b50858210156121c65787850151600019600388901b60f8161c191681555b5050505050600190811b01905550565b602081526000611bf26020830184611c1b565b8281526040602082015260006122026040830184611c1b565b94935050505056fea26469706673582212207f97bc1d36f9c0410dbce32fb7b30a2065f51e090f972e40dea9b73aa359fdc264736f6c63430008110033",
  "linkReferences": {},
  "deployedLinkReferences": {}
}